:0400000066EF00F0B7
:10000800FACF26F0FBCF27F0E9CF28F089EF03F0ED
:10001800D8CF01F0E8CF02F0E0CF03F0FACF04F038
:10002800FBCF05F0E9CF06F0EACF07F0E1CF08F003
:10003800E2CF09F0D9CF0AF0DACF0BF0F3CF0CF00A
:10004800F4CF0DF0F6CF0EF0F7CF0FF0F8CF10F099
:10005800F5CF11F080CF12F012B807D0342A180E5D
:10006800346403D0000E346E00D012B607D0352A9F
:100078003C0E356403D0000E356E00D0F29011C0EE
:10008800F5FF10C0F8FF0FC0F7FF0EC0F6FF0DC058
:10009800F4FF0CC0F3FF0BC0DAFF0AC0D9FF09C098
:1000A800E2FF08C0E1FF07C0EAFF06C0E9FF05C09C
:1000B800FBFF04C0FAFF03C0E0FF02C0E8FF01C075
:1000C800D8FF1000F2EF05F0780E0001606F000E07
:1000D800BAEC04F0800E0001606F010EBAEC04F077
:1000E800AE0E0001606F020EBAEC04F0780E00014B
:1000F800606F000EBAEC04F0800E0001606F010E14
:10010800BAEC04F0D50E0001606F010EBAEC04F0F1
:10011800000E0001606F010EBAEC04F0820E0001BF
:10012800606F020EBAEC04F0780E0001606F000EEA
:10013800BAEC04F0800E0001606F010EBAEC04F016
:10014800A80E0001606F010EBAEC04F0000E000169
:10015800606F010EBAEC04F01F0E0001606F020E12
:10016800BAEC04F0780E0001606F000EBAEC04F0EF
:10017800800E0001606F010EBAEC04F0D30E00018E
:10018800606F010EBAEC04F0000E0001606F010E02
:10019800BAEC04F0000E0001606F020EBAEC04F035
:1001A800780E0001606F000EBAEC04F0800E0001BA
:1001B800606F010EBAEC04F0400E0001606F020E91
:1001C800BAEC04F0780E0001606F000EBAEC04F08F
:1001D800800E0001606F010EBAEC04F08D0E000174
:1001E800606F010EBAEC04F0000E0001606F010EA2
:1001F800BAEC04F0140E0001606F020EBAEC04F0C1
:10020800780E0001606F000EBAEC04F0800E000159
:10021800606F010EBAEC04F0A10E0001606F020ECF
:10022800BAEC04F0780E0001606F000EBAEC04F02E
:10023800800E0001606F010EBAEC04F0C80E0001D8
:10024800606F020EBAEC04F0780E0001606F000EC9
:10025800BAEC04F0800E0001606F010EBAEC04F0F5
:10026800DA0E0001606F010EBAEC04F0000E000116
:10027800606F010EBAEC04F0020E0001606F020E0E
:10028800BAEC04F0780E0001606F000EBAEC04F0CE
:10029800800E0001606F010EBAEC04F0810E0001BF
:1002A800606F010EBAEC04F0000E0001606F010EE1
:1002B800BAEC04F0FF0E0001606F020EBAEC04F015
:1002C800780E0001606F000EBAEC04F0800E000199
:1002D800606F010EBAEC04F0D90E0001606F010ED8
:1002E800BAEC04F0000E0001606F010EBAEC04F0E5
:1002F800F10E0001606F020EBAEC04F0780E0001F6
:10030800606F000EBAEC04F0800E0001606F010E01
:10031800BAEC04F0DB0E0001606F010EBAEC04F0D9
:10032800000E0001606F010EBAEC04F0000E00012F
:10033800606F020EBAEC04F0780E0001606F000ED8
:10034800BAEC04F0800E0001606F010EBAEC04F004
:10035800A40E0001606F020EBAEC04F0780E0001E2
:10036800606F000EBAEC04F0800E0001606F010EA1
:10037800BAEC04F0A60E0001606F020EBAEC04F0AD
:10038800780E0001606F000EBAEC04F0800E0001D8
:10039800606F010EBAEC04F0200E0001606F010ED0
:1003A800BAEC04F0000E0001606F010EBAEC04F024
:1003B800000E0001606F020EBAEC04F0780E000126
:1003C800606F000EBAEC04F0800E0001606F010E41
:1003D800BAEC04F0220E0001606F010EBAEC04F0D2
:1003E800000E0001606F010EBAEC04F0000E00016F
:1003F800606F010EBAEC04F0030E0001606F020E8C
:10040800BAEC04F0000E0001616F080E606F2EEC6C
:1004180005F0780E0001606F000EBAEC04F0800E53
:100428000001606F010EBAEC04F0AF0E0001606FBE
:10043800020EBAEC04F01200000E1F6EBF0E226E00
:100448003F0E236E22502310D8A4000E246E780E7F
:10045800136E000EF8EC04F0400E136E010EF8EC6B
:1004680004F0000E1E6E030E1E6401D04BD11EC098
:1004780017F00F0E17161738F00B206E000E256EAA
:100488007F0E256401D03CD125380F0B0F0B216E50
:100498002150D8A430D015C0D9FF16C0DAFFDF50DC
:1004A800176E1750030DFF0EF324F66E390EF42065
:1004B800F76E0900F5CF22F00900F5CF23F00A0006
:1004C800F5CF24F0255020C017F0186A1726000E23
:1004D800182217502224196E185023201A6E000E65
:1004E80018BEFF0E24201B6E19C0F6FF1AC0F7FFB6
:1004F8001BC0F8FF1ED02104D8A41FD020EE01F0A5
:100508001550D9261650DA22DF50176E1750030DF2
:10051800FF0EF324F66E390EF420F76E0900F5CFBE
:1005280022F00900F5CF23F00A00F5CF24F0F00EF1
:10053800BDD00800F5CF1FF0DCD0020E2118D8A4DA
:100548001BD020EE02F01550D9261650DA22DF50C3
:10055800176E1750030DFF0EF324F66E390EF420B4
:10056800F76E0900F5CF22F00900F5CF23F00A0055
:10057800F5CF24F0E00E9AD0030E2118D8A41BD092
:1005880020EE03F01550D9261650DA22DF50176EE8
:100598001750030DFF0EF324F66E390EF420F76E94
:1005A8000900F5CF22F00900F5CF23F00A00F5CFB6
:1005B80024F0D00E7BD0040E2118D8A41BD020EE36
:1005C80004F01550D9261650DA22DF50176E17504E
:1005D800030DFF0EF324F66E390EF420F76E0900B2
:1005E800F5CF22F00900F5CF23F00A00F5CF24F06B
:1005F800C00E5CD0050E2118D8A41BD020EE05F043
:100608001550D9261650DA22DF50176E1750030DF1
:10061800FF0EF324F66E390EF420F76E0900F5CFBD
:1006280022F00900F5CF23F00A00F5CF24F0B00E30
:100638003DD0060E2118D8A41BD020EE06F0155088
:10064800D9261650DA22DF50176E1750030DFF0E09
:10065800F324F66E390EF420F76E0900F5CF22F078
:100668000900F5CF23F00A00F5CF24F0A00E1ED024
:10067800070E2118D8A43AD020EE07F01550D92635
:100688001650DA22DF50176E1750030DFF0EF324B1
:10069800F66E390EF420F76E0900F5CF22F0090046
:1006A800F5CF23F00A00F5CF24F0900E176EFF0E59
:1006B800186E255020C019F01A6A1926000E1A2241
:1006C8001750192618501A22195022241B6E1A5036
:1006D80023201C6E000E1ABEFF0E24201D6E1BC0A8
:1006E800F6FF1CC0F7FF1DC0F8FF23D7000E1F6ED2
:1006F80000D01FC013F0010EF8EC04F0252AC0D674
:100708001E2AB1D6FDEC05F01200EACF29F0E1CFA0
:100718002AF0E2CF2BF0D9CF2CF0DACF2DF0F3CF9F
:100728002EF0F4CF2FF0F6CF30F0F7CF31F0F8CF2E
:1007380032F0F5CF33F0CF508009CF6E362A3C0E19
:100748003618D8A404D0000E366E352A00D03C0ED8
:100758003518D8A404D0000E356E342A00D0180EEF
:100768003418D8A403D0000E346E00D034C013F06F
:10077800146A000E166E0A0E156E2EEC04F0135055
:10078800300F386E34C013F0146A000E166E0A0E5D
:10079800156E79EC04F01350300F396E3A0E3A6E3C
:1007A80035C013F0146A000E166E0A0E156E2EEC84
:1007B80004F01350300F3B6E35C013F0146A000E6E
:1007C800166E0A0E156E79EC04F01350300F3C6E5D
:1007D8003A0E3D6E36C013F0146A000E166E0A0EFD
:1007E800156E2EEC04F01350300F3E6E36C013F029
:1007F800146A000E166E0A0E156E79EC04F013508A
:10080800300F3F6E3704D8A407D0380E156E000E8F
:10081800166E20EC02F000D09E9033C0F5FF32C077
:10082800F8FF31C0F7FF30C0F6FF2FC0F4FF2EC02D
:10083800F3FF2DC0DAFF2CC0D9FF2BC0E2FF2AC07E
:10084800E1FF29C0EAFF28C0E9FF27C0FBFF26C057
:10085800FAFF1100000E186E16AE07D0156C161EA2
:10086800D8B0162A010E186E00D014AE07D0136C3B
:10087800141ED8B0142A010E181A00D0000E1A6ED1
:10088800000E196E15501610D8B421D0010E176E2F
:1008980005D0D89015361636172A00D016BE02D0C5
:1008A800F8D700D0D89019361A361550135C165060
:1008B8001458D8A006D01550135E1650145A198033
:1008C80000D0D89016321532172EECD700D0185019
:1008D800D8B405D0196C1A1ED8B01A2A00D019C07D
:1008E80013F01AC014F012001200000E186E14AEA5
:1008F80007D0136C141ED8B0142A010E186E00D03D
:1009080016AE05D0156C161ED8B0162A00D0155094
:100918001610D8B41DD0010E176E05D0D890153614
:100928001636172A00D016BE02D0F8D700D01550B8
:10093800135C16501458D8A005D01550135E1650E5
:10094800145A00D0D89016321532172EF0D700D08E
:100958001850D8B405D0136C141ED8B0142A00D07F
:1009680013C013F014C014F0120012000001616FDC
:10097800000161510001D8A407D0C580C5A00DD0E1
:10098800FDD70BD0FBD709D000016105D8A409D049
:10099800C5A203D0FDD701D0FBD79E50F70B9E6EA2
:1009A80000D060C0C9FF9E969EB603D0FDD701D087
:1009B800FBD7000161510001D8B4120001D0120028
:1009C80000016105D8B4120001D01200020E000126
:1009D8006119D8A41200C584C5A403D0FDD701D0DD
:1009E800FBD79E9612001200146E1450D8A407D09C
:1009F800C580C5A00CD0FDD70AD0FBD708D01404F9
:100A0800D8A409D0C5A203D0FDD701D0FBD79E50EA
:100A1800F70B9E6E00D013C0C9FF9E969EB603D0FA
:100A2800FDD701D0FBD71450D8B4120001D0120062
:100A38001404D8B4120001D01200020E1418D8A45D
:100A48001200C584C5A403D0FDD701D0FBD79E965C
:100A580012001200000E0001666F000E656F0001A3
:100A680066BF0AD0E80E0001655D030E00016659F5
:100A7800D8B0120001D01200000E0001646F000E01
:100A8800636F04D00001634B642B00D000016051F8
:100A98000001635D00016451800A0001626F00017A
:100AA8006151800A00016259D8A0ECD70001654B5A
:100AB800662BD5D71200D3508F0B4009D36E000E8A
:100AC8006D6E000E6B6EC290000E7E6E000E7F6E15
:100AD8009268380E776EF19E5F0E936E180E796EDF
:100AE8008A9A080EC66E000EC76E000EC86EC68AB9
:100AF8008A9EF190D08E9D809E90C80EF26E4F0E09
:100B0800CD6ECF508009CF6ED38E1200000E376E97
:100B18005FEC05F08A9A030E0001616FE80E606FC2
:100B2800B1EC05F08A8A68EC00F000D03750D8B4F0
:100B380080BA04D0CCEC05F0010E07D03704D8B445
:100B480080AA05D0DFEC05F0000E376E00D0D38008
:100B58000300D390EBD766EF00F0000E0001646F3E
:100B6800000E636F04D00001634B642B00D00001BA
:100B780060510001635D00016451800A0001626FE9
:100B880000016151800A00016259D8A0ECD7120017
:100B9800780E0001606F000EBAEC04F0800E0001C0
:100BA800606F010EBAEC04F0AF0E0001606F020E28
:100BB800BAEC04F01200780E0001606F000EBAEC77
:100BC80004F0800E0001606F010EBAEC04F0AE0E66
:100BD8000001606F020EBAEC04F0120000EE34F06F
:100BE8000C0EEE6AE806FDE1000EF86E00018AEFD1
:100BF80005F0C584C5B403D0FDD701D0FBD79E96B8
:020C08001200D8
:1039FE0000FF3C000000000000000000000000007E
:103A0E0000000000000000000000000000000000A8
:103A1E000000000000000000000000000000000098
:103A2E000000000000000000000000000000000088
:103A3E000000000000000000000000000000000078
:103A4E000000000000000000000000000000000068
:103A5E000000000000000000000000000000000058
:103A6E000000000000000000000000000000000048
:103A7E000000000000000000000000000000000038
:103A8E0000BF3F007F3E007F3F003F3F00BF3D0035
:103A9E007F3D00FF3E00BF3E003F3D003F3E00FF2A
:103AAE003D000000000000000000000000000000CB
:103ABE0000000000000000000000000000000000F8
:103ACE0000000000000000000000000000000000E8
:103ADE0000000000000000000000000000000000D8
:103AEE0000000000000000000000000000000000C8
:103D3E0000FCFEFF1F0F0F0F0F0F0F0F0F1FFFFEC9
:103D4E00FC7FFFFFE0C0C0C0C0C0C0C0C0E0FFFF2E
:103D5E007FFEFFFF07030303030303030307FFFFB6
:103D6E00FE3F7FFFF8F0F0F0F0F0F0F0F0F8FF7F9C
:103D7E003FFFFFFF0F0F0F0F0F0F0F0F0F0F0F0F45
:103D8E000FFFFFFFC0C0C0C0C0C0C0C0C0C0C0C019
:103D9E008003030303030303030303030307FFFF6C
:103DAE00FF3C7CFCF8F0F0F0F0F0F0F0F0F8FF7F64
:103DBE003FFFFFFF00000000000000000000FFFFBB
:103DCE00FFFFFFFFE0C0C0C0C0C0C0C0C0E0FFFF2B
:103DDE00FF01030303030303030303030307FFFFAF
:103DEE00FF00000000000000000000000000FFFFC8
:103DFE00FF000000000080C0C0C0C08000000000B6
:103E0E00000000000000070F0F0F0F07000000005A
:103E1E00000000000000E0F0F0F0F0E00000000014
:103E2E000000000000000103030303010000000076
:103E3E0000FCFEFF1F0F0F0F0F0F0F0F0F1FFFFEC8
:103E4E00FCFFFFFFE0C0C0C0C0C0C0C0C0E0FFFFAD
:103E5E00FF01030303030303030303030307FFFF2E
:103E6E00FF3C7CFCF8F0F0F0F0F0F0F0F0F8FF7FA3
:103E7E003F000000383C3EFFFFFFFFFF0000000048
:103E8E0000000000000000FFFFFFFFFF0000000029
:103E9E0000000000000000FFFFFFFFFF0000000019
:103EAE0000000000000000FFFFFFFFFF0000000009
:103EBE0000FFFFFF0F0F0F0F0F0F0F0F0F0FFFFF63
:103ECE00FF01010100000000000000000000FFFFE4
:103EDE00FF00000000000000000000000000FFFFD7
:103EEE00FF00000000000000000000000000FFFFC7
:103EFE00FFFCFEFF1F0F0F0F0F0F0F0F0F1F3F3E89
:103F0E003CFFFFFFC0C0C0C0C0C0C0C0C0C0C0C06A
:103F1E0080FFFFFF07030303030303030307FFFFF2
:103F2E00FF3F7FFFF8F0F0F0F0F0F0F0F0F8FF7FD9
:103F3E003FFCFEFF1F0F0F0F0F0F0F0F0F1FFFFE88
:103F4E00FC0000000000000000C0C0C0C0E0FFFF89
:103F5E007F00000000000000000303030307FFFFC3
:103F6E00FE3F7FFFF8F0F0F0F0F0F0F0F0F8FF7F9A
:103F7E003FFCFEFF1F0F0F0F0F0F0F0F0F1FFFFE48
:103F8E00FC01010100000000000000000000FFFF26
:103F9E00FF000000000080C0E0F0F87C3E1F0F071D
:103FAE0003F0F8FCFEFFFFF7F3F1F0F0F0F0F0F0A5
:103FBE00F0FCFEFF1F0F0F0F0F0F0F0F0F1FFFFE57
:103FCE00FCFFFFFF00000000000000000000FFFFEC
:103FDE00FFFFFFFF00000000000000000000FFFFD9
:103FEE00FF3F7FFFF8F0F0F0F0F0F0F0F0F8FF7F19
:023FFE003F0082
:020000040020DA
:08000000FFFFFFFFFFFFFFFF00
:020000040030CA
:0E0000000068181EFF0884FF03C003E00340E1
:00000001FF
